:020000040000fa
:10000000f0ff0320d5300000b3390000433a000070
:10001000673f0000fb3f0000bf4000000000000001
:100020000000000000000000000000000741000088
:10003000433d0000000000000741000007410000b0
:100040000741000007410000074100000741000090
:100050000741000007410000074100000741000080
:10006000074100000741000007410000693f000010
:100070000741000007410000074100000741000060
:100080000741000007410000074100000741000050
:100090000741000007410000074100000741000040
:1000a000074100000741000007410000b93f000080
:1000b00007410000074100000741000079420000ad
:1000c0008342000007410000074100000741000093
:1000d0000741000007410000074100000741000000
:1000e0000741000007410000000000000000000080
:1000f0000000000007410000d91f0000d91f0000c8
:10010000d91f0000d91f000007410000074100006f
:1001100007410000074100000741000007410000bf
:1001200007410000074100000741000007410000af
:10013000074100000741000007410000074100009f
:100140000741000007410000911e0000911e0000c1
:10015000911e0000911e0000000000000000000041
:10016000000000000000000000000000000000008f
:100170000000000000000000074100007d28000092
:10018000074100000741000007410000074100004f
:100190000000000007410000074100000741000087
:1001a000074100000741000007410000074100002f
:1001b000074100000741000007410000074100001f
:1001c000074100000741000007410000074100000f
:1001d00007410000074100000741000007410000ff
:1001e00007410000074100000741000007410000ef
:1001f00007410000074100000741000007410000df
:10020000074100000000000000000000074100005e
:1002100007410000074100000741000007410000be
:1002200007410000074100000741000007410000ae
:10023000074100000741000007410000074100009e
:10024000074100000741000007410000074100008e
:10025000074100000741000007410000074100007e
:020000040000fa
:10026000f8b500bff8bc08bc9e467047693a00006c
:10027000f8b500bff8bc08bc9e467047453a000080
:020000040000fa
:080280009013000001000000d2
:020000040000fa
:100288002de9f04f2ded028bd2e9008997b0cde929
:100298000c138b6808930b690f90d1e900b614937f
:1002a800cd68002200234046494603f0f7fc40b9d8
:1002b8001bf0040f32d11bf00803059330d0202324
:1002c80003e089f0004399462d232b70089b03f126
:1002d800ff3a012305934c4929f0004300208b4243
:1002e80008bf80451fd10d9b413b192b059b94bf2f
:1002f800464947492b44184603f0b4ff284603f003
:10030800e7fecdf800b00246089b0f98294602f098
:1003180025ff17b0bdec028bbde8f08f2b23d4e787
:10032800ddf820a0d7e7994208bf404509d20d9bc8
:10033800413b192b059b94bf364937492b44184636
:10034800dae7002200234046494603f0ddfc9fed32
:100358002c7b8ded027b48b300240d9803f062ffdf
:10036800002ec3b20993c0f2d781672b5ad1002e51
:1003780008bf0126231d02dbb442c0f2c6816527ef
:1003880061e09ded067b8ded027b01340022234b5d
:10039800dde9020101f0c0fe42464b46cde9060107
:1003a80003f060fc0028ecd000271fe00446ede7ce
:1003b80014f5967f11da87b90022194b4046494651
:1003c80001f0aafe002280468946154bdde90201ac
:1003d80001f0a2fecde902010127dde902010022b8
:1003e8000e4b01f08efbcde90201013cdde9022351
:1003f8004046494603f052fc0028d9d1ade700bf7a
:10040800000000000000f03f0000f07f1c420000e8
:10041800204200002442000028420000000024403e
:1004280000005043099f662f06f101060bd1002cee
:1004380004da9fedbd7b8ded027b0024099b672bc1
:1004480018bf361966279ded027bcde906898ded2b
:100458000a7b00230e93dde90a23dde9060101f09a
:1004680050fb41ec100b02f06ffa51ec100bb0eea0
:10047800408af0ee608a03f073fab0ee480af0eeb4
:10048800680a069b1093079b159083f0004311930d
:100498009ded0a1b9ded102b03f036fd53ec102b40
:1004a80083f000430793dde90a01a34b8ded060aab
:1004b800002201f026fb0e9b01339e42cde90a0182
:1004c8000e93c8d100229d4b01f026fecde90a010a
:1004d80002460b46dde9060103f0e0fb002840f088
:1004e8008180dde90a23dde9060103f00dfc10b186
:1004f800159bda0776d5dde90a234046494601f01f
:10050800e1f90022cde906018b4bdde9020101f09a
:1005180003fedde90623cde90a0103f04dfb0028bf
:1005280065d0662f04f1010465d10136a146a9eb17
:1005380006034ff00008059e1093cdf80880109b25
:10054800994540f08180029b002b00f0c880a819d3
:100558000022652f027029d1149b1499013b944203
:10056800ea54c1f1030ebcbf644201220a21002ce7
:1005780040f0bc800eeb030cbcf1000f00f3b6801a
:10058800002a03f1ff3114bf2d222b226a540d9a41
:10059800023b413a192a05eb030198bf45279e42c1
:1005a8000f70aaf1020a01da03f05cfe0bf00303f4
:1005b800022b7ff4a3aebaf1000f7ff79fae284657
:1005c80003f086fd05eb0a03059a824240f3998001
:1005d800059b2b4418465246302103f0cdfd0023dd
:1005e80008938be69fed527b8ded0a7b83e79dedab
:1005f800027b8ded0a7b652f14bfa1464ff00009e1
:1006080095e7029a52b9b9f1000f07da0e992e222e
:100618006a54012201360af1ff3a029205eb0801f9
:10062800aa193144302001e002f8010b9142fbd1b4
:1006380008eb06023033aaeb080808f1ff3a561c0b
:10064800ab544ff0000828e00c9b0e961b69053b45
:10065800b3427ff678afdde90a23dde9060101f050
:1006680050fa41ec100b02f06ff951ec100bb0eea0
:10067800408af0ee608a03f073f90bf01002092843
:100688000346a8bf09230243bbd1099a672ab8d1f8
:10069800b9f1000fc2da08f10108069b1293079b13
:1006a800b0ee480af0ee680a83f0004313939ded1c
:1006b8000a1b9ded122b03f027fc53ec102b83f043
:1006c80000430793dde90a0100221b4b8ded060a62
:1006d80001f017fa09f1ff39cde90a012fe71bf0fc
:1006e800100f1ebf2e23ab55013630e7b4fbf1fccb
:1006f800013b01fb1c443034ec540af1ff3a6446d8
:1007080035e72a5c1a5401385ee7002cbff69aae2a
:10071800662788e606262de6099b672bfad01f4632
:10072800062680e6aff30080000000000000f03fde
:1007380000000000000000000000244000001440f9
:020000040000fa
:100748002de9f04f95b0cde912030b68089392edaf
:10075800007b4b680a938b6809930b690d93cc68ef
:100768000022002351ec170b8ded047b03f096fa61
:1007780040b9089b580734d4089b13f0080732d0b7
:10078800202306e0dde9042181f00043cde90423bc
:100798002d232370099b01275a1edde90403dff886
:1007a800f8b223f000414ff0000a594508bf504500
:1007b8001bd1139b413b192b04eb070094bfb04995
:1007c800b04903f04ffdaf4803f082fc089b00934b
:1007d8000246099b1298214602f0c0fc15b0bde8fc
:1007e800f08f2b23d5e7099ad7e7139b8b45a3f105
:1007f800410308bf82450b9309d2192b04eb07006c
:1008080094bfa149a14903f02dfda048dce73021a0
:10081800e1550b997b1c1a2934bf58217821e154e2
:10082800931e079300220023dde90401023703f039
:100838006bfa002800f07b819fed8f7b8ded027baa
:1008480000250a9bdde90289002bdde904abb8bf6e
:1008580018230e93002642464b465046594601f04f
:1008680050f941ec100b02f06ff842464b4651ec40
:10087800100b8ded100b01f04ffc02460b46504655
:10088800594603f007fd824b82468b46404649464f
:10089800002201f041fc731c0c930a9b002b80463c
:1008a800894606da002200235046594603f02cfafe
:1008b80028b90e9bb34200f3408101330c93002208
:1008c800744b4046494601f027fc8046894602465b
:1008d8000b465046594603f0e1f9002840f02f81b5
:1008e80042464b465046594603f00efa30b1dde910
:1008f800100103f035f8c10740f1218142464b460b
:10090800dde9040100f0deffcde90401dde90421a1
:1009180021f00043604900208b4208bf82423ff427
:1009280048af4ff000083e46c246c1460d9b053b06
:10093800b342b34633d9dde90223dde9040101f00e
:10094800e0f841ec100b01f0ffff51ec100b8dedbe
:100958000e0b03f005f8002840f0f680b9f1000fff
:1009680000f0f28008f10108dde90223dde90e015b
:1009780001f0d2fb02460b46dde9040103f08afcd4
:10098800434bcde904010022dde9020101f0c4fb7b
:100998000c9b09f101094b45cde90201c6d1baf119
:1009a800000f1ed1b8f1000f00f015810a9b002b33
:1009b80040f31181089bda0700f10d81a3192e225b
:1009c8001a7008eb06022244302100bf03f8011f09
:1009d8009a42fbd1079b46446fea08084344013614
:1009e80007930d9b0d990022a019013b95420270b7
:1009f800b8bf6d42e254c1f1020eb8bf01224ff0f8
:100a08000a08002d40f0d7800eeb030cbcf1010f53
:100a180000f0d180002a03f1ff3114bf2d222b22d0
:100a280062540b9a023b1a2a04eb030134bf50228a
:100a380070229e420a7001da03f014fc089b03f04e
:100a48000303022b14d1079ba3f10208b8f1000f8e
:100a58000edd204603f03cfb04eb0803b84280f2ad
:100a6800b68042463021e01903f086fb0023099343
:100a78002046a9e6aff30080000000000000f03f28
:100a88000c4200001042000014420000184200000e
:100a98000000b03f000020400000f07fcde902894f
:100aa8000135dde902231046194600f00bff8046a8
:100ab800894602460b46dde9040103f0eff80028f9
:100ac800ecd0dff82cb1dff82c914ff0000a4ff092
:100ad8000008dde90223dde9040103f0dff800285e
:100ae8003ff4afae52465b46dde9020101f014fb6c
:100af8000022002303f008f978b142464b46dde9ad
:100b0800020101f009fb4246cde902014b46dde94d
:100b1800040101f001fbcde90401dde902015246bf
:100b28005b4601f0f9fa013dcde90201d1e79fedfd
:100b38002e7b05468ded027bb3e70c9e8be64ff0ce
:100b480000084ff00009d9e6baf1000f0bd1b9f14e
:100b5800000f08d02e2304f80b30079b013b013609
:100b680007934ff0010a04eb0803a219334430211c
:100b780002e000bf02f8011b9a42fbd1079b06eb7b
:100b8800080ba3eb08080b9b0928d4bf303057305b
:100b9800192b06d840f02003613b192b01d803f02c
:100ba80048fb08f1ff330bf1010604f80b0007932b
:100bb8004ff00008d8e60799b5fbf8fc013b08fba5
:100bc8001c5530350139e5540791654619e7225c13
:100bd8001a54013842e7089bdb067ff502af2e2343
:100be800a3550136fde600bf000000000000f03ffd
:080bf8000000e03f0000504343
:020000040000fa
:100c00000d0a5b43414e5d2053656e6420464420cf
:100c10007374616e64617264206d6573736167657e
:100c200020776974682049443a203078343541206f
:100c3000616e642036342062797465206461746169
:100c4000203020746f2036332e0d0a005b43414e56
:100c50005d204d6573736167652073656e64206602
:100c600061696c6564212121200d0a000d0a5b4336
:100c7000414e5d2053656e64204644207374616e5e
:100c800064617264206d6573736167652077697450
:100c9000682049443a20307834363920616e642027
:100ca0003634206279746520646174612031323891
:100cb00020746f203139312e0d0a00000d0a5b437c
:100cc000414e5d2053656e6420464420657874650e
:100cd0006e646564206d6573736167652077697400
:100ce000682049443a203078313030303030413556
:100cf00020616e64203634206279746520646174ea
:100d000061203020746f2036332e0d0a0000000061
:100d10000d0a5b43414e5d2053656e6420464420be
:100d2000657874656e646564206d6573736167656d
:100d300020776974682049443a2030783130303067
:100d40003030393620616e64203634206279746523
:100d500020646174612031323820746f2031393160
:100d60002e0d0a000d0a5b43414e5d2053656e64f3
:100d7000206e6f726d616c207374616e6461726459
:100d8000206d6573736167652077697468204944d5
:100d90003a20307834363920616e64203820627908
:100da00074652064617461203020746f20372e0dcb
:100db0000a0000000d0a0d0a5b43414e5d204465a8
:100dc0006d6f204d656e75204f7074696f6e732066
:100dd0003a0d0a20202d2d3e20456e74657220614b
:100de000206b657920746f2073656c656374206f68
:100df0006e65206f662074686520666f6c6c6f7717
:100e0000696e6720616374696f6e733a0d0a202002
:100e10005b315d2053656e64204644207374616ebf
:100e200064617264206d65737361676520776974ae
:100e3000682049443a20307834354120616e64207e
:100e400036342062797465206461746120302074c6
:100e50006f203633200d0a20205b325d2053656ef3
:100e600064204644207374616e64617264206d6511
:100e7000737361676520776974682049443a20304c
:100e80007834363920616e64203634206279746596
:100e900020646174612031323820746f203139311f
:100ea000200d0a20205b335d2053656e642046448c
:100eb00020657874656e646564206d657373616721
:100ec0006520776974682049443a203078313030a1
:100ed000303030413520616e6420363420627974c0
:100ee000652064617461203020746f203633200dda
:100ef0000a20205b345d2053656e642046442065e3
:100f00007874656e646564206d65737361676520d0
:100f1000776974682049443a203078313030303075
:100f200030393620616e6420363420627974652051
:100f3000646174612031323820746f20313931207e
:100f40000d0a20205b355d2053656e64206e6f7244
:100f50006d616c207374616e64617264206d657381
:100f60007361676520776974682049443a20307856
:100f700034363920616e64203820627974652064cb
:100f8000617461203020746f2037200d0a20205baf
:100f90004d2f6d5d20446973706c6179206f7074a2
:100fa000696f6e7320696e2074686973206d656e59
:100fb00075200d0a20205b522f725d2052657365eb
:100fc00074204d4355200d0a0d0a00000d0a5b2abe
:100fd0002a2a4552524f522a2a2a5d20416e206900
:100fe0006e76616c6964206d656e75206974656ddf
:100ff000207761732073656c65637465642e2e2e93
:04100000200d0a00b5
:020000040000fa
:101004002de9f041aeb00646154605910027059935
:101014000b78002b00f0fa8000244ff0ff33cde969
:1010240009430eab0c9380230b940d930b5d0bb112
:10103400252b26d134b12246304602f0a7ff059b6a
:1010440023440593059b1a78252a40f0d78003f1a1
:101054000108cdf81480059803782b2b1ad025d8d5
:10106400202b1bd0232b1dd02a2b27d002f0c4fc0d
:101074000b90059b1a78303a092a2ed80133059330
:10108400f7e70134d2e7099b43f0010301300993e8
:101094000590e0e7099b43f00403f7e7099b43f05d
:1010a4000803f3e7099b43f01003efe72d2bead085
:1010b400302bd9d1099b43f00203e7e72b681a1db3
:1010c4001b682a600130002b05900b9305da099afe
:1010d4005b4282f0010209920b93099bda0744bf39
:1010e40023f002030993059b1a782e2a0dd10022be
:1010f400581c0a9205905a782a2a25d1023305935e
:101104002b681a1d1b682a600a9305a802f038fd93
:10111400059b0390187803f087f86928039979d020
:1011240032dc632800f0cb8019dc252800f0d9805c
:10113400612853d000234ff0ff32cdf81480099377
:101144000b930a920093d4e002f056fc0a90059b9c
:101154001a78303a092ad8d801330593f7e7642876
:1011640058d06728e6dc2a4606a802f0e5fe0028e7
:1011740000f0a180059b5a1c05921b7806aa09a9b8
:101184003046fff77ff838e0702873d015dc6e28fe
:1011940000f08c806f28cdd12b46002206a801f0e8
:1011a400b9fd002800f08780059b06aa013309a930
:1011b4003046059302f0d0f81fe075283ad078281d
:1011c40048d07328b6d1802975d1059b2a6801338c
:1011d4000593131d2b60126800237de02a4606a8a0
:1011e40002f0aafe002866d0059b5a1c05921b78c3
:1011f40006aa09a93046fff7a5fa04443c44a742cd
:101204007add3e4b4f221a604ff0ff3738462eb03e
:10121400bde8f0812b46012206a801f07bfd0028e1
:1012240049d0059b06aa013309a93046059301f06c
:10123400c7fde2e72b46002206a801f06bfd00285b
:1012440039d0059b06aa013309a93046059302f05b
:10125400e1fad2e72b46002206a801f05bfd50b369
:10126400059b5a1c05921b7806aa09a9304600f072
:10127400edffc2e72b460022f02106a801f04afd4b
:10128400c8b1059b01330593dde9062313430bd154
:101294001b4802f01fff099b009319490b9b024650
:1012a400304601f05dffa8e77823dde72b463a19c5
:1012b40006a801f0d7ff059b013305939ee780291b
:1012c400f9d1059b013305932b681a1d1b682a600d
:1012d4008df8183006aa012309a9304602f06efae7
:1012e4008be78029e7d1059b01330593099b009384
:1012f4000b9b04490122d3e7274688e6a007002078
:08130400944200009a4200002f
:020000040000fa
:10130c00f8b5ad4b1b78dbb2052b00d0f8bd3138ee
:10131c00412800f24d81dfe810f042006e009e0083
:10132c00d10008014b014b014b014b014b014b010f
:10133c004b014b014b014b014b014b014b014b0141
:10134c004b014b014b014b014b014b014b014b0131
:10135c004b013a014b014b014b014b013e014b013f
:10136c004b014b014b014b014b014b014b014b0111
:10137c004b014b014b014b014b014b014b014b0101
:10138c004b014b014b014b014b014b014b014b01f1
:10139c004b013a014b014b014b014b013e01874c78
:1013ac0048220021204602f0e5fe854b1c60854b4f
:1013bc0023603f23a371e21d002300bf02f8013f0d
:1013cc000133402bfad1804b40221a707f4802f037
:1013dc006dfd01217e4802f0ebfe774b02221a7064
:1013ec00774b1968012002f047fb00288ed1794811
:1013fc0002f05cfd8ae7714c48220021204602f085
:10140c00b9fe6f4b1c60744b23603f23a371e01d2e
:10141c0004f147010346c0f18000c21803f8012f04
:10142c008b42fad1684bc0221a706c4802f03efd18
:10143c000121674802f0bcfe5f4b02221a70604b20
:10144c001968012002f018fb00287ff45faf614897
:10145c0002f02cfd5ae7594c48220021204602f09c
:10146c0089fe574b1c6000235d4a62f31c0323600a
:10147c001b0e43f04003e3703f23a371e21d0023d6
:10148c0002f8013f0133402bfad14f4b40221a7026
:10149c00544802f00bfd01214d4802f089fe464be9
:1014ac0002221a70464b1968012002f0e5fa002856
:1014bc007ff42caf474802f0f9fc27e73f4c482259
:1014cc000021204602f056fe3d4b1c600023464a8c
:1014dc0062f31c0323601b0e43f04003e3703f23b5
:1014ec00a371e01d04f147020346c0f18000c1184e
:1014fc0003f8011f9342fad1334bc0221a703b48b8
:10150c0002f0d4fc0121324802f052fe2a4b022296
:10151c001a702b4b1968012002f0aefa00287ff4e8
:10152c00f5ae2c4802f0c2fcf0e6244c4822002117
:10153c00204602f01ffe224e3460274b2360082306
:10154c00a37100222272012565720227a772032261
:10155c00e27204222273052262730622a27307220e
:10156c00e273194a1370224802f0a0fc294618486d
:10157c0002f01efe104b1f703168284602f07cfaf8
:10158c0000287ff4c3ae134802f090fcbee6194865
:10159c0002f08cfcbae6bff34f8f1749ca6802f40d
:1015ac00e062164b1343cb60bff34f8f00bffde7d8
:1015bc00134802f07bfca9e6ae0700201c060020b5
:1015cc00c406002000006811aa070020000c0000cf
:1015dc00fd3b00004c0c00000000a4116c0c000042
:1015ec00a5000010bc0c000096000010100d0000af
:1015fc00640d0000b40d000000ed00e00400fa05dd
:04160c00cc0f0000ff
:020000040000fa
:101610002de9f04f099f154604468e461e46002bc5
:1016200040f0cc808a42b2fa82fc4cd9bcf1000f67
:101630000bd0ccf1200801fa0cfe20fa08f802facf
:101640000cf548ea0e0e00fa0cf44fea15491ffaa1
:1016500085f8befbf9fa210c09fb1ae30afb08fb2b
:1016600041ea03439b452ad9eb180af1ff3004d223
:101670009b4502d9aaf102002b44a3eb0b03a4b2b1
:10168000b3fbf9f209fb123302fb08f844ea034406
:10169000a04516d92c1902f1ff3303d2a04501d978
:1016a000931e2c44a4eb080443ea004027b124fa1b
:1016b0000cf400233c607b603146bde8f08f50465f
:1016c000dbe71346eee702b9ffdebcf1000f2ed1d7
:1016d0008b1a01264fea154eaab2b3fbfef8210c75
:1016e0000efb183308fb02f941ea0343994561d91f
:1016f000eb1808f1ff3004d2994502d9a8f1020095
:101700002b44a3eb0903a4b2b3fbfef10efb113390
:101710004a4344ea0344a2424ed92c1901f1ff3353
:1017200003d2a24201d98b1e2c44a41abce7ccf1ef
:10173000200e02fa0cf521fa0ef901fa0cf320fa48
:101740000efe4eea03034fea154800fa0cf4b9fb0b
:10175000f8f11ffa85fe08fb1192180c01fb0ef63a
:1017600040ea0242964221d9aa1801f1ff3003d281
:10177000964201d9881e2a44921b9bb2b2fbf8f90b
:1017800008fb192209fb0efe43ea02439e450fd9ce
:10179000eb1809f1ff3604d29e4502d9a9f10206e1
:1017a0002b44a3eb0e0346ea004693e70846e3e723
:1017b0004e46f6e74046a4e70b46b6e78b4206d90d
:1017c000002f7ed00026c7e90001304674e7b3fa47
:1017d00083fcbcf1000f0fd18b4201d3824209d8a8
:1017e000841a61eb030e0120002f6dd0c7e9004e73
:1017f000002661e76046f7e7ccf1200e03fa0cf310
:1018000022fa0ef521fa0ef41d4301fa0cf320fa28
:101810000ef10b434fea154a00fa0cf6b4fbfaf945
:101820001ffa85f80afb19401c0c09fb08f144ea71
:101830000044a14202fa0cf23fd92c1909f1ff3001
:1018400004d2a14202d9a9f102002c44641a9bb22d
:10185000b4fbfaf90afb194409fb08f843ea04410e
:1018600088452cd9691809f1ff3304d2884502d97b
:10187000a9f10203294443ea0040a1eb0801a0fbbf
:1018800002894945c2464c4602d306d1464504d298
:10189000b8eb020a69eb05040138afb1b6eb0a03f5
:1018a00061eb040606fa0efe23fa0cf34eea03037c
:1018b00026fa0cf6c7e900369ae74846c6e74b46d3
:0c18c000d9e73e463846f7e63e46f5e61e
:020000040000fa
:1018cc0030b591ea030f00f18280841a71eb030c9e
:1018dc0005d2121953eb0c03001b71eb0c0140f2f7
:1018ec00000ccff6e07c1cea430f52d0bceb410f4e
:1018fc005fd90c0da4eb135e5ff0010c6cf31f5160
:10190c006cf31f53def1200c2ad303fa0cf54019ab
:10191c0041f1000122fa0ef5401923fa0ef5694146
:10192c0012fa0cf2cd0208d349085fea30005feae4
:10193c00320228bf42f001020134013c5fea500c34
:10194c0072f1004250f1000051eb04514ff40013be
:10195c0013eb410f38bf30bd6ff31301002030bdc6
:10196c00bef1200ebef1200f1ed223fa0ef5401947
:10197c0041f10001cef1200c124218bf012203faf2
:10198c000cf52a43cee711ea5c0f04bf00200021be
:10199c0030bd1cea410f04bf01f00041002030bdf6
:1019ac0001f00041002030bd21f4801101eb045105
:1019bc0030bd004218bf41f00101bceb410f08bf24
:1019cc0030bd4ff0fe4141f47801002030bd83f072
:1019dc000043841a71eb030e07d28ef0004e001bed
:1019ec0071eb0e01121953eb0e0340f2000ccff603
:1019fc00e07c1cea430fc6d0bceb410f72d90c0d36
:101a0c00a4eb135ec90241ea5051c00241f00041ff
:101a1c00db0243ea5253d20243f00043def1200cc6
:101a2c0041d312fa0cf522fa0ef203fa0cf542ea43
:101a3c00050218bf42f0010223fa0ef3801a9941f5
:101a4c00e30ac4f30a0411f0404f03d418d0013c4c
:101a5c0040004941013c23d44205c00a40ea4150b0
:101a6c00c90a51eac3715fea500c72f1004250f19d
:101a7c00000051eb045130bd01002fd00020203c60
:101a8c000029f9d0b1fa81fcdcf1200e11fa0cf12d
:101a9c0030fa0ef510fa0cf02943a4eb0c04d9e73c
:101aac000020d90730bdaef1200ebef1200f0dd2b3
:101abc00cef1200c03fa0cf533fa0ef32a4318bfbf
:101acc0043f00103c01a61f10001b9e721f00041b4
:101adc00c00a40ea4150c90a01eb045130bd002054
:101aec00002130bd004218bf41f00101bceb410f99
:0e1afc007ff467afbceb430f3ff463af30bd28
:020000040000fa
:101b0a00f0b581ea030e0ef0004e40f20007cff660
:101b1a00e07717ea41051ebf95ea070f17ea430463
:101b2a0094ea070f00f0c5806d0da5eb545707f531
:101b3a0080674ff0004646eac12444ea5054c00286
:101b4a0046eac32343ea5253d202801a9c4104d282
:101b5a000018644180185c41013f5b084fea320279
:101b6a000025002140f001004ff0070604e0801a2a
:101b7a009c4136d340416441801a9c4136d340414e
:101b8a006441801a9c4136d340416441801a9c4189
:101b9a0036d340416441801a9c4136d34041644166
:101baa00013e17d0801a9c4136d340416441801ac5
:101bba009c4136d340416441801a9c4136d340410e
:101bca006441090201eb156190ea052520f0ff0046
:101bda004540cce7801a9c4156d335e080185c41d9
:101bea00c8d20018644180185c41c8d20018644108
:101bfa0080185c41c8d20018644180185c41c8d280
:101c0a000018644180185c41c8d200186441013e42
:101c1a0017d080185c41c8d20018644180185c4112
:101c2a00c8d20018644180185c41c8d200186441c7
:101c3a00090201eb156190ea052520f0ff004540f5
:101c4a00cce780185c411fd3420918bf44f0010455
:101c5a00490101ebd56100f01f0000eb451021f4aa
:101c6a00801141ea0e01013041f10001244208bf0e
:101c7a0020f00100b7f5006f3eda013f49dd01ebc4
:101c8a000751bde8f0407047490101ebd56100f00a
:101c9a001f0000eb451021f4801141ea0e01b7f54f
:101caa00006f29da013f34dd01eb0751bde8f0404e
:101cba007047004218bf41f00101124218bf43f0b9
:101cca000103b7eb410f2cbfb7eb430f1ce0b7eb97
:101cda00410f04bfb7eb430f16e017ea410f04bfe9
:101cea0017ea430f10e017ea410f12d017ea430f21
:101cfa0002d0b7eb430f0cd04ef0fe4141f4700115
:101d0a000020bde8f04070474ff0fe4141f47801f1
:061d1a00f6e77146f4e754
:020000040000fa
:101d20002de9f04f87b082460f4691466bb1012beb
:101d30001ed0022b2fd0baf1000f00f094804fea92
:101d400009194ff00008494c45e0484e3446484dcb
:101d50000fcd0fc40fcd0fc42b6824f8023b1b0c12
:101d60002370304602f092f8304602f0bbf8e2e70a
:101d70003e4e34463f4d0fcd0fc40fcd0fc42b68e0
:101d800024f8023b1b0c2370304602f07ff83046eb
:101d900002f0a8f8cfe7354e3446374d0fcd0fc4cb
:101da0002b682380304602f071f8304602f09af832
:101db000c1e7324b93e8030020602171204602f016
:101dc00065f8204602f08ef84f4408f101085ffaea
:101dd00088f8c24547d02546294e0fce0fc596e854
:101de000030085e80300204602f050f8204602f088
:101df00079f8fb7813f0400f3b6814bfc3f31c0c59
:101e0000c3f38a4cbd7905f00f051e4b0fcb06ae10
:101e100006e90f00354415f8106c00966346ba8841
:101e20001949204602f03ef9204602f02ff82046dc
:101e300002f058f8002ebcd0fd1d013e07f108034a
:101e400053fa86f6dff844b015f8012f59462046bc
:101e500002f028f9204602f019f8204602f042f874
:101e6000b542f1d1a5e707b0bde8f08f0000002032
:101e70005c2c0000802c0000a42c0000102d000021
:101e8000b82c0000fc410000d02c0000082d000000
:020000040000fa
:101e900038b54f4b9b7dd3b14d4a137edbb2927d5b
:101ea00012f0800f14d14a4a137edbb2927d12f0f9
:101eb000010f02d013f0010f50d1454a137edbb25f
:101ec000927d12f0040f02d013f0040f18d138bd28
:101ed00013f0800fe7d03e4b5b8b13f00703e2d08b
:101ee0003c4ce38501f02eff394b84221a75002308
:101ef00084f82c30636a002bd5d0a06a9847d2e7cb
:101f0000344b93f82c30002be1d0324b1a6adb694a
:101f10009a42dcd22e4b9a6a5b6803f00703012bce
:101f20002c4b9869196a01f101041c6214bf4254d8
:101f300020f81120274b1a6adb699a42c7d1254b3a
:101f4000002283f82c20da61214a842111755b6a12
:101f5000002bbcd01f4a906a9847b8e71d4b1b7de9
:101f6000002baad01b4b9a685c68194b1b7e13f0a0
:101f7000010f19d0a24217d2164b1d6814491a46f8
:101f80004b6803f00703012b936803f10100906095
:101f900014bfeb5c35f813308b6290680b7e13f046
:101fa000010f01d08442ebd80a4b9a685b689a42d1
:101fb00083d3084b00221a755a60054a0121117516
:101fc000db68002b3ff479af024a1069984774e749
:081fd000000400436406002038
:020000040000fa
:101fd80038b54f4b9b7dd3b14d4a137edbb2927d12
:101fe80012f0800f14d14a4a137edbb2927d12f0b0
:101ff800010f02d013f0010f50d1454a137edbb216
:10200800927d12f0040f02d013f0040f18d138bdde
:1020180013f0800fe7d03e4b5b8b13f00703e2d041
:102028003c4ce38501f0a2fe394b84221a7500234b
:1020380084f82c30636a002bd5d0a06a9847d2e781
:10204800344b93f82c30002be1d0324b1a6adb6901
:102058009a42dcd22e4b9a6a5b6803f00703012b85
:102068002c4b9869196a01f101041c6214bf42548f
:1020780020f81120274b1a6adb699a42c7d1254bf1
:10208800002283f82c20da61214a842111755b6ac9
:10209800002bbcd01f4a906a9847b8e71d4b1b7da0
:1020a800002baad01b4b9a685c68194b1b7e13f057
:1020b800010f19d0a24217d2164b1d6814491a46af
:1020c8004b6803f00703012b936803f1010090604c
:1020d80014bfeb5c35f813308b6290680b7e13f0fd
:1020e800010f01d08442ebd80a4b9a685b689a4288
:1020f80083d3084b00221a755a60054a01211175cd
:10210800db68002b3ff479af024a1069984774e7ff
:08211800003000409406002095
:020000040000fa
:10212000f0b540f2ff7681ea030c16ea115e1ebf9d
:10213000b64516ea1355b54252d021ea465141f44c
:102140008011a1fb024723ea465343f48013ae44b7
:10215000a0fb03650cf0004c36197d41a1fb034741
:1021600047f10003a0fb0217f619654153f1000384
:10217000094218bf46f0010640f2fe74b3f5007f35
:1021800013d2aef5806ea64523d24cea0331280364
:1021900041ea155140ea16503203450872f10042f7
:1021a00050f1000051eb0e51f0bdaef2ff3ea645de
:1021b0000fd24ceac321e80241ea555140ea565099
:1021c000f202450872f1004250f1000051eb0e514d
:1021d000f0bd1eea0e0f2dd50cf000410020f0bd21
:1021e00016ea115f04bf01f000410020004218bf51
:1021f00041f0010116ea135f04bf03f0004300221f
:10220000124218bf43f0010306ea1354b44218bf48
:10221000b64503d00cf000410020f0bd21f0004194
:1022200023f00043b1eb065f0cd8b3eb065f09d88f
:1022300041b13bb10cf0004141f0fe4141f470016d
:102240000020f0bd40f20001c7f6f8710020f0bd9b
:020000040000fa
:102250002de9f04f0e4649683568d6f80890f768c2
:102260008bb0cde903230029acbf25f00205012185
:1022700015f010030593039b8346d3e900232fd069
:1022800052ea03002cd0a9f10208346915f00800c5
:1022900004f1ff3408904ff00000385518bf08f1e2
:1022a000ff388a46012c1ddc059b002b54d1089b6e
:1022b00013b1013c20233b5532690095013a4b464e
:1022c000121b3919584600f04dffdbf80430db05ce
:1022d00003d573689842b8bf18460bb0bde8f08fbd
:1022e000c846d2e752ea030009d1baf1000f06dc72
:1022f000a8eb010050440028d6dda807d4d502f091
:102300000f000928d4bf00f1300e00f1570e0498d9
:10231000a0f1410cbcf1190f04f1ff3410d84ef0bc
:10232000200cacf1610cbcf1190f09d87046099171
:10233000cde9062301f081ffdde9062309998646f0
:10234000100940ea03704fea131c07f804e00af191
:10235000ff3a02466346a5e7039bd3e9000150ea32
:102360000103a4d03a19049b02f8013c023c30233b
:042370003b559ce756
:020000040000fa
:102374002807002038000000000000007c0700202f
:1023840008000000000000006007002010000000aa
:10239400000000008407002010000000000000007e
:1023a400c806002060000000000000003404002083
:1023b400c000000000000000700700200c000000b6
:1023c400000000006406002060000000000000001f
:1023d400a407002004000000000000000002002008
:1023e4003401000000000000a807002003000000e2
:1023f4000000000044050020d80000000000000098
:10240400ab0700200100000000000000c40600200b
:1024140004000000000000001c060020480000002a
:102424000000000034030020000100000000000050
:1024340000000020000200000000000094070020bb
:102444000400000000000000ac07002003000000ae
:1024540001000000010105009807002004000000ad
:1024640000000000f4040020500000000000000000
:102474009c0700200800000000000000000000008d
:102484000000000066666666666666666666666680
:020000040000fa
:102494003c4b00221a7403f500633b4a9a621a46c5
:1024a400536813f0100ffbd1384b4222c3f8842039
:1024b4001a4600bfd2f8843013f0400ffad0344be0
:1024c40000229a6377225a631a46d36b13f0040fdf
:1024d400fbd12f4b022283f830201a46d36b13f022
:1024e400020ffbd12a4a136c03f00303032bfad126
:1024f400284b01225a711a46d37813f0010ffbd0ee
:10250400224b254a1a621a46536813f0040ffbd172
:102514001e4b224a5a621a46536813f0080ffbd125
:102524001a4b4122c3f890201a4600bfd2f89030cb
:1025340013f0400ffad0154b4122c3f89c201a46e1
:10254400d2f89c3013f0400ffad0104b4122c3f85c
:10255400f0201a46d2f8f03013f0400ffad00b4bab
:102564004122c3f80c211a46d2f80c3113f0400f63
:10257400fad0084b0a4a1a6141f2ff725a610222e8
:102584001a6270470014004006013000001c00402d
:10259400001000400008004007010100070102008c
:0425a400fffffd0038
:020000040000fa
:1025a80080b5002001f0fafb00223549104601f001
:1025b80011fe00223349012001f00cfe00223249ad
:1025c8000f2001f049fc0021304801f039fe01f0ec
:1025d80073fd2f4800f0e2f800222e49104601f062
:1025e80009fd00222c49012001f004fd00212b489f
:1025f80001f0e8fd2a4f3c462a4d0fcd0fc40fcd00
:102608000fc40fcd0fc495e80300206024f8041f01
:10261800090c04f8021f384601f034fc384601f072
:102628005dfc3d46204e0fce0fc50fce0fc596e878
:10263800070085e80700384601f024fc384601f019
:102648004dfc3d46194e0fce0fc50fce0fc50fce10
:102658000fc596e8030045f8040b2980090c217082
:10266800384601f00ffc384601f038fc104801f0fc
:102678001ffc00f091fa01f0d9fa00f02dfaf8e702
:102688005941000045410000554200003141000019
:1026980000020020354000005140000019400000b1
:1026a80000000020a82f0000e02f00000c300000e0
:0426b800b40d00005d
:020000040000fa
:1026bc0070b4364c04eb0014247b4cb1040104f1cf
:1026cc00824404f5204494f84e4014f0030f55d086
:1026dc00040104f1824505f52045032685f84e607a
:1026ec002a4d254401262e73294d2c5b14f4806f42
:1026fc0019bfc91805eb0014254c04eb00146160dc
:10270c000101234c615a11f4006f27d01a4404ebd9
:10271c0000118a601e4902018c188a5ac2f30122e8
:10272c00d3409bb26380030103f1824303f5204342
:10273c001a6c42f002021a641a6c12f4fe4f1fd18a
:10274c0093f8463013f0400f1dd112490c69012249
:10275c0002fa00f323430b61104612e00d4949883d
:10276c0011f4404f04d10a4901eb00118a60d1e702
:10277c001168074a02eb00129160cbe7002000e0e1
:10278c00012070bc70470120fbe700bf0807002048
:08279c00e806002000a0004146
:020000040000fa
:1027a40038b504464ff49a72002101f0e7fc2e4b31
:1027b40001229a611a46936913f0010ffbd02a4b48
:1027c4009a6942f002029a6128490c60a2b242f06e
:1027d400004242f48032c3f8a02004f148024a6067
:1027e40092b242f0004242f48032c3f8b02004f1c5
:1027f40090028a6092b2c3f8ac2004f1d802ca6095
:1028040092b242f08072c3f8c02004f590720a615b
:1028140092b242f48032c3f8f02004f594724a6113
:102824001348c4f8280192b242f48032c3f88420d9
:1028340004f596728a610f4d03cdc4f82c01c4f8d7
:10284400301192b242f48032c3f888209a6922f49b
:10285400407222f0010242f440729a611a4693696e
:1028640013f0010ffbd138bd0004004244070020df
:08287400ff0700088c42000080
:020000040000fa
:10287c0010b52e4b1c6d14f0007f1cbf4ff0007276
:10288c001a6514f0010f0cd0284b01221a65d3f8ed
:10289c00a400274b1b6823b1254a516800f07f0028
:1028ac00984714f0100f0cd0204b10221a65d3f857
:1028bc00b4001f4b9b6823b11d4ad16800f07f0008
:1028cc00984714f4002f09d0184b4ff400221a65c6
:1028dc00d3f8983013b113f0010f1ed114f4006f1c
:1028ec0009d0124b4ff400621a65124b1b6813b1de
:1028fc00104a5068984714f4805f0dd00b4b4ff47e
:10290c0080521a65d3f8f4000b4b1b6823b10a4aaa
:10291c00516800f03f00984710bd084b1b68002b16
:10292c00dcd0064a516800209847d7e700040042e3
:10293c00600700208c070020840700207c07002003
:020000040000fa
:04294c0000207047b0
:020000040000fa
:1029500053ec102bc3f30a512de9f04140f2fd7006
:102960004e1e86421d4645d8a1f2ff30002835dbb9
:10297000332831dc284bc0f120084ff0ff3c03fa2c
:1029800008f2a1f21f412cfa00fc10ee104a4ceaaa
:10299000020c23fa01f24cea020c23fa00fe04eacc
:1029a0000c0605ea0e0724ea0c0256ea070425ea9b
:1029b0000e030fd0002a73f100040bda4ff48015d8
:1029c00005fa08f425fa01f10c43121925fa00f072
:1029d00040eb030343ec102bbde8f081002a73f1b8
:1029e000000303db9fed080bbde8f0819fed080bb2
:1029f000bde8f0810029efd10a4603f0004343ec23
:102a0000102be9e7aff30080000000000000000099
:0c2a1000000000000000f0bfffff0f00fe
:020000040000fa
:102a1c00002a59d02de9f8438046154620b10128eb
:102a2c002ad00020bde8f883284bd3f8a440c4f387
:102a3c000524d1b14f1e5ffa87f9002600e01e462f
:102a4c0004ebc401224b1b68482203ebc10128464e
:102a5c0001f006fbb74208d048350134e4b2012c32
:102a6c0008bf4446731cb145e9d104f03f04174b31
:102a7c00c3f8a8400120d5e7144bd3f8b440c4f3f5
:102a8c000524d1b14f1e5ffa87f8002600e01e46e0
:102a9c0004ebc4010e4b5b68482203ebc1012846d2
:102aac0001f0defabe4208d048350134e4b2012c04
:102abc0008bf0024731c4645e9d104f03f04034bc6
:102acc00c3f8b8400120ade7002070470004004275
:042adc00440700208b
:020000040000fa
:102ae000284b1b7833b1274b00221a70264b4ff42a
:102af0008042da61254b1b78002b42d010b5234b66
:102b000000221a70224b1b78dbb1012b21d0022b43
:102b100027d0032b2dd0002001f0f6fa1c4b1a7899
:102b200002eb82021b4c1c4b03eb82021b4920462a
:102b300001f0b8fa204601f0a9f9204601f0d2f9d7
:102b400010bd134b01221a704ff4806001f0e6fab9
:102b5000e1e70f4b02221a704ff4006001f0defa39
:102b6000d9e70b4b03221a704ff4805001f0d6facc
:102b7000d1e7074b00221a704ff4007001f0cefa33
:102b8000c9e77047a907002000800041a80700207e
:102b9000ab0700200000002018390000d43d0000e1
:020000040000fa
:102ba00008b5254b1b78dbb2032b0cd0042b16d0b9
:102bb000224b1b780bbb224b1b7843bb214b1b7852
:102bc000002b2ed108bd204b1b78012b03d01a4bb4
:102bd00005221a70ece71d4801f06ef9f7e71a4b71
:102be0001b7833b91a4801f067f9134b05221a70a4
:102bf000dee7184801f060f9f7e7104b00221a7081
:102c0000114b1968144b187800f018fcd3e70c4be3
:102c100000221a700c4b19680f4b187800f044fc16
:102c2000cce7084b00221a70074b19680a4b18783a
:102c300000f0a4fcc6e700bfae070020a6070020f6
:102c4000a7070020a507002094070020e435000016
:0c2c5000083600002c360000a40700200d
:020000040000fa
:102c5c005b43414e5d205278204649464f30202838
:102c6c005374616e64617264204672616d65732980
:102c7c00203e00005b43414e5d2052782046494681
:102c8c004f312028457874656e6465642046726106
:102c9c006d657329203e00005b43414e5d205278e8
:102cac0020427566666572203e000000204e6577f6
:102cbc00204d657373616765205265636569766540
:102ccc00643a20005b2054696d657374616d7020eb
:102cdc003d2030782578207c204944203d203078d8
:102cec002578207c204c656e677468203d20256417
:102cfc00207c2044617461203a20000030782578d3
:0c2d0c0020000000205d0d0a000000bf48
:020000040000fa
:102d1800882910b536d012dc812943d003dc8029fc
:102d280040d0002010bd82290ed08429f9d119681d
:102d380002b30a1d1a60b1f90020d3171ee0a029ba
:102d48002bd00bdc9029ecd11968073121f0070151
:102d580001f108021a60d1e900230fe0c02901d06f
:102d6800f029ded11a68111d196013680360002369
:102d7800436005e00a1d1a600a880023c0e90023a1
:102d88000120cfe7196822b10a1d1a6091f90020c5
:102d9800d3e70a1d1a600a78efe71a68111d19604f
:102da8001268cae719681ab10a1d1a600a68c4e7e6
:0c2db8000c1d1c600b68c0e90032e1e754
:020000040000fa
:102dc4002de9f041d2e900230c4686b007465feabc
:102dd400d37820684968a5680590e66841d05242d6
:102de40063eb4303002908db20f002000590b8f1ef
:102df400000f02d1059948072ad5691e05a802903b
:102e04000a20cde90010204600f06afab8f1000f5c
:102e140002d1059b59071fd5b8f1000f00f1ff300f
:102e240014bf2d232b2333542269059b0093013aad
:102e34002b46121a3118384600f092f97b68db05ec
:102e440003d563689842b8bf184606b0bde8f08160
:102e54000807d2d42946d1e71a07e5d5013820233b
:082e6400e1e70029c0dac5e72f
:020000040000fa
:102e6c00254ad36823f4e0631b041b0c43f0bf63b7
:102e7c0043f40033d360bff35f8f62b61f4be02285
:102e8c0083f80b234ff40061196083f81b234ff078
:102e9c000061196083f81f234ff00041196083f81b
:102eac0020230121596083f82e234ff4804159606f
:102ebc0083f82f234ff40041596083f830234ff4eb
:102ecc008030586083f831234ff40030586083f819
:102edc0042230420986083f843230820986083f8e9
:102eec0044231020986083f845232020986083f8b1
:102efc004f239960704700bf00ed00e000e100e057
:020000040000fa
:102f0c00224b01229a611a46936913f0010ffbd0f0
:102f1c001e4b9a6942f002029a6141f27642da60e3
:102f2c001b4ada6140f27772c3f8bc204ff0ff32d3
:102f3c00c3f89820c3f89c200722c3f8c820282285
:102f4c00c3f880206ff06042c3f8902001221a620f
:102f5c009a6922f4407222f0010242f440729a61a2
:102f6c001a46936913f0010ffbd1084a00239365ad
:102f7c000121d16507495165074a1360536093607d
:102f8c00d360136153619361704700bf000400422a
:0c2f9c00040d050611180802440700206f
:020000040000fa
:102fa8000d0a202d2d2d2d2d2d2d2d2d2d2d2d2d99
:102fb8002d2d2d2d2d2d2d2d2d2d2d2d2d2d2d2d39
:102fc8002d2d2d2d2d2d2d2d2d2d2d2d2d2d2d2d29
:102fd8002d2d2d200d0a0000202020202053414daa
:102fe8004535312043414e202620424c452044653a
:102ff8006d6f20202020202020202020202020202d
:10300800200d0a00202d2d2d2d2d2d2d2d2d2d2d72
:103018002d2d2d2d2d2d2d2d2d2d2d2d2d2d2d2dd8
:103028002d2d2d2d2d2d2d2d2d2d2d2d2d2d2d2dc8
:0c3038002d2d2d2d2d200d0a0d0a00005d
:020000040000fa
:10304400214a137843f001031370536813f0010ffe
:10305400fbd11d490b7843f010030b700022ca61a9
:103064004ff010430b624ff400430b634a630b6150
:10307400164b10221a721a7583f8202083f82c201c
:1030840083f8382083f8442083f8502083f85c20a8
:1030940083f8682083f8742083f8802083f88c20d8
:1030a40083f8982083f8a42083f8b0200f2283f8b3
:1030b400bc200b7843f002030b700a46536813f0ec
:1030c400020ffbd1704700bf0028004034040020e9
:020000040000fa
:1030d40008b51b4b98471b4b9847eff3108172b60a
:1030e400194ad2f8883043f47003c2f88830bff329
:1030f4004f8fbff36f8f01b962b6144c2023636006
:1031040000f0eafd124b23f07f030f4a9360114b4a
:103114009847a36823f00103a3602346da6812f0fa
:10312400010ffbd1094b5a6842f004025a60012294
:103134009a60094b9847094b9847fff733fafee723
:103144006f3800006f38000000ed00e000600041bf
:1031540000000000653700006f3800006f38000081
:020000040000fa
:103164002de9ff471d460c9b13f0010906468a46cc
:10317400144601d195420bd822465146304600f000
:1031840005ffa54204d82546284604b0bde8f087cb
:103194002f1b102f3a464ff0200128bf10226846fb
:1031a400b84600f0ebff00bfb8f10f0f11d83b0990
:1031b4006ff00f0202fb03726946304600f0e6fe30
:1031c400b9f1000fe0d122465146304600f0defe50
:1031d400dae710226946304600f0d8fea8f110085c
:0431e400e2e700bf5f
:020000040000fa
:1031e80030b583b000230193030103f1824303f553
:1031f800204393f84e30dbb20193019b13f0020f8a
:103208000dd0010101f1824202f52042022382f829
:103218004e30124b0b4400221a73012500e00225a0
:10322800019b13f0010f0cd0010101f1824202f55c
:103238002042012382f84e30084b0b4400221a73b7
:103248000225064b03eb00135c682cb1034a02eb22
:10325800001399682846a04703b030bd080700202e
:020000040000fa
:10326800842910b523d00cdc812903d0822913d0fe
:1032780080290bd119680c1d1c600b6803601a604b
:1032880013e0902921d003dc882917d0002010bd35
:10329800a029efd0c029ece719680c1d1c600b6849
:1032a8000360d1171046c3e900010120efe7196850
:1032b8000c1d1c600b6803601a80f6e719680c1d6a
:1032c8001c600b6803601a70efe719680c1d1c601e
:0c32d80009680160d317c1e90023e6e794
:020000040000fa
:1032e4002de9f84f04460c9f6668d4f80cb02469a5
:1032f40010463a68013c002502f0020a0b9a0bf8ca
:103304000450002e1946b8bf0126012390464fea07
:10331400e279002c03dcd3b12046bde8f88f50eaf3
:10332400010209d1721b002a06dc0a9a521b002ae8
:10333400f1ddbaf1000feed042464b4600f060fddd
:10334400013c134630320bf804200135e1e73b68b9
:0833540023f010033b60dfe7ea
:020000040000fa
:10335c00f0b50c4649682368a768e56887b0002972
:10336c000593a4bf23f00203059305ab0293082336
:10337c00cde900730646d2e900232046fff7acffe7
:10338c00059bd90642bf00f1ff3030232b54059b1f
:10339c001a0742bf00f1ff3020232b542269059bf2
:1033ac000093013a3b46121a29183046fff7d4fe17
:1033bc007368db0503d563689842b8bf184607b03d
:0233cc00f0bd52
:020000040000fa
:0233ce00704746
:020000040000fa
:1033d000f0b4144a00215160916011735161916100
:1033e00011771148114b5863114c9c634ff0813495
:1033f0005c61104c1c6440f20946068083f845105d
:1034000001251570032483f84d400b4f1f6506827c
:1034100083f85510157483f85d4040f602721a80e7
:10342000f0bc704708070020e806002000a000411b
:0c343000c8060020000f2000000520004e
:020000040000fa
:10343c0038b505460c46164b196000f03dfb10f0f4
:10344c00070005d0072803d0124b04221a7002e0a3
:10345c0014f0ff0f00d038bd05ebc5020e4cd200a6
:10346c000021204600f086fe224629460020fff768
:10347c00cffa18b9074b04221a70ece70023482244
:10348c0021462846fef746fc024b03221a70e2e75f
:0c349c0094070020ae0700208c050020e3
:020000040000fa
:1034a80038b505460c46164b196000f007fb10f0be
:1034b800070005d0072803d0124b04221a7002e037
:1034c80014f0ff0f00d038bd05ebc5020e4cd2003a
:1034d8000021204600f050fe224629460120fff731
:1034e80099fa18b9074b04221a70ece7012348220d
:1034f80021462846fef710fc024b03221a70e2e729
:0c35080094070020ae070020d40500202e
:020000040000fa
:10351400184b44f64c021a604cf240021a61002126
:1035240083f8421083f8431083f84610012283f88d
:10353400482083f8492083f84b1083f84e10052166
:1035440083f84f10022183f8501083f8511083f848
:103554005310222183f8341083f8cc2083f8cd2033
:1035640083f8d02083f8d120772283f8b62083f81b
:08357400b8107047008000410f
:020000040000fa
:10357c0038b505460c46154b196000f09dfa10f055
:10358c00070005d0072803d0114b04221a7002e063
:10359c0014f0ff0f00d038bd0e4c482200212046fd
:1035ac0000f0e8fd2146284600f03efc18b9084b17
:1035bc0004221a70efe70223482221460120fef76d
:1035cc00a9fb034b03221a70e5e700bf9407002008
:0835dc00ae07002044050020a9
:020000040000fa
:1035e4005b43414e5d204d65737361676520736570
:1035f4006e74207375636365737366756c6c79217f
:103604000d0a00005b43414e5d204572726f7220cb
:10361400696e207265636569766564206d65737390
:10362400616765210d0a00005b43414e5d204d65d5
:1036340073736167652073656e64206661696c6588
:0836440064210d0a000000bf23
:020000040000fa
:10364c00f0b59bb004460d46164600214c2207a847
:10365c001f4600f08ffd4ff0ff33029303f203136c
:10366c00039304b901accde9044555b16a1e002d94
:10367c00069208da094b4f221a604ff0ff301bb04c
:10368c00f0bd2a46f3e71cbf002323703a463146af
:10369c0002a8cde9074400f0f1fcf0e7a0070020f8
:020000040000fa
:1036ac0020b310b40446134b1b7d0bbb114b18609d
:1036bc00596001221a7500230f4809e0426802f094
:1036cc000702012a14bfe25c34f813208262013332
:1036dc00027e12f0010f01d09942efd1054a93609e
:1036ec000120054b98755df8044b7047002070471e
:0c36fc000020f8e76406002000040043f2
:020000040000fa
:1037080020b310b40446134b1b7d0bbb114b186040
:10371800596001221a7500230f4809e0426802f037
:103728000702012a14bfe25c34f8132082620133d5
:10373800027e12f0010f01d09942efd1054a936041
:103748000120054b98755df8044b704700207047c1
:0c3758000020f8e794060020003000403c
:020000040000fa
:103764000e4a38b5002313600d4a0e4c13600e4afe
:103774000e4d13600e4a13600e4a13600e4a5362d4
:1037840013610123936000f016fd00f014fdac42b8
:1037940000d338bd54f8043b9847f8e79c07002051
:1037a400000500206c020000fc04002070020000f0
:0c37b400f4040020f804002004050020ac
:020000040000fa
:1037c0002de9ff41134dd1f80080af88adf80c70a2
:1037d00006462868029002aca8798df80e00002aef
:1037e00018bf1446d1e901571a461bb9204600f00c
:1037f00073fc0246002d02dbaa4228bf2a46cdf800
:1038000000803b4621463046fff7acfc04b0bde8e3
:08381000f08100bfa44200009a
:020000040000fa
:10381800f0b50c4649682368a668e76887b00029b0
:103828000593a4bf23f00203059305ab02930a2373
:10383800cde900630546d2e900232046fff74efd97
:103848002269059b0093013a3346121a3918284613
:10385800fff784fc6b68db0503d563689842b8bf43
:06386800184607b0f0bd98
:020000040000fa
:02386e007047a1
:020000040000fa
:10387000114b124a1a604ff622029a814ff44032dd
:103880005a601a46d369002bfcd10b4a136843f0e7
:1038900002031360d369002bfcd1094b00229a610b
:1038a000da611a6283f82c205a621a605a609a60b0
:1038b0001a75da60da85704700040043040110408d
:0438c000640600207a
:020000040000fa
:1038c400114b124a1a604ff622029a814ff4403289
:1038d4005a601a46d369002bfcd10b4a136843f093
:1038e40002031360d369002bfcd1094b00229a61b7
:1038f400da611a6283f82c205a621a605a609a605c
:103904001a75da60da85704700300040040110400f
:0439140094060020f5
:020000040000fa
:10391800353030206d696c6c695365636f6e647304
:103928000000000031207365636f6e6400000000c2
:10393800000000000000000032207365636f6e64b1
:1039480073000000000000000000000034207365d0
:10395800636f6e6473000000000000000000000048
:020000040000fa
:10396800c1f30a5340f21e42d21a0edd202a0ad8a9
:10397800cb0243ea505040f00040d04090eae1705a
:10398800b0ebe1707047002070474b00004218bf51
:1039980043f0010313f5001f88bf21f0004111f027
:0a39a800004058bf6ff00040704768
:020000040000fa
:0239b200fee72e
:020000040000fa
:1039b400104b01221a801a46136913f0010ffbd130
:1039c4000c4b48f280121a804ff400721a621a46a5
:1039d400136913f0200ffbd1064b00225a621a46da
:1039e400136913f0400ffbd1024b4ff480725a81dc
:0839f400704700bf00240040f1
:020000040000fa
:1039fc0010b50278202a034600f10100f9d0a2f19b
:103a0c0009010429f5d92b2a07d02d2a11d101211e
:103a1c000133013b00200a2403e00021f8e7604356
:103a2c00801a13f8012f303a092af8d901b940420b
:063a3c0010bd0021ede7c2
:020000040000fa
:023a4200fee79d
:020000040000fa
:103a440010b5054c227832b9044b13b10448aff3d6
:103a540000800123237010bd28070020000000000f
:103a64000000000008b5034b1bb103490348aff342
:103a7400008008bd000000002c07002000000000aa
:020000040000fa
:103a8400012815d1b1b138b50b4dd5f8c440c4f3f4
:103a9400044404ebc400094bdb68482203ebc00078
:103aa40000f0e2fa012000fa04f4c5f8d04038bd71
:103ab40000207047002070470004004244070020a3
:020000040000fa
:103ac4000e4b586c20f4605020f018004004400c59
:103ad4009b6913f0010f10d0084a936943f0020365
:103ae4009361936923f4407323f0010343f4407317
:103af4009361936913f0010ffbd1704700040042f6
:020000040000fa
:103b0400b8b138b505460c4a92f82c200ab1002009
:103b140038bd0c4600f014f9074b9d61dc610022ae
:103b24001a62012083f82c00da85044b84229a75ea
:103b3400eee70020704700bf640600200004004345
:020000040000fa
:103b4400b8b138b505460c4a92f82c200ab10020c9
:103b540038bd0c4600f00cf9074b9d61dc61002276
:103b64001a62012083f82c00da85044b84229a75aa
:103b7400eee70020704700bf9406002000300040ac
:020000040000fa
:103b840030b50d4a002300bf12f8134024b902ebec
:103b940043035b78184630bd01680d78a54209bf20
:103ba40002eb430301335b78013114bfdbb20160e4
:0c3bb4000a2be9d9eee700bff04000004a
:020000040000fa
:103bc0004ff4001c1ceb410f98bf1ceb430f11d8a6
:103bd00051ea030c50ea4c0c5cea020c0cd004d203
:103be00082428b418041013070479042994180412f
:0c3bf00001307047002070470120704732
:020000040000fa
:103bfc0010b504460a4b1860fff75eff10f0070083
:103c0c0005d0072803d0074b04221a7002e0e4b257
:103c1c00012c00d010bd034b03221a70fae700bf31
:083c2c0094070020ae07002000
:020000040000fa
:103c340010b501210b48fff763ff28b9012109489a
:103c4400fff77eff48b910bd064c01212046fff75f
:103c540059fd2078fdf758fbf0e701210148fff7f3
:083c640023fdf0e7340300200a
:020000040000fa
:103c6c004ff4001c1ceb410f98bf1ceb430f11d8f9
:103c7c0051ea030c50ea4c0c5cea020c0ad004d258
:103c8c0082428b4180414042704790429941804131
:083c9c00404270470020704710
:020000040000fa
:103ca4004ff4001c1ceb410f98bf1ceb430f11d8c1
:103cb40051ea030c50ea4c0c5cea020c0ad004d220
:103cc4009042994180414042704782428b418041f9
:083cd4004042704700207047d8
:020000040000fa
:103cdc0070b50a480a4d4ff6ff76016811b9436872
:103cec0003b970bd83684268334000f10c0455f889
:103cfc0023302046984704eb8000eee77423000045
:043d0c006c41000006
:020000040000fa
:103d10004ff4001c1ceb410f98bf1ceb430f0cd859
:103d200050ea410c08bf52ea430c08d0904208bf49
:103d300099420cbf012000207047002070470120ed
:023d40007047ca
:020000040000fa
:023d4200fee79a
:020000040000fa
:103d44000a4b5b8b13f0070f0ed0084b80221a76b8
:103d540007225a831b7e13f0040f05d0034b9a6a83
:103d64001a7e12f0040ffad1704700bf000400431a
:020000040000fa
:103d74000a4b5b8b13f0070f0ed0084b80221a7688
:103d840007225a831b7e13f0040f05d0034b9a6a53
:103d94001a7e12f0040ffad1704700bf00300040c1
:020000040000fa
:103da40008b500f021fafff7b3fbfef771fbfff74c
:103db4000cfbfff785fdfff7a7f8fff707fbfff7fd
:103dc40055fdfff73df9fff7f3fdfff74df808bd8b
:020000040000fa
:103dd4000d0a5b53414d5f4535315f434e414e4fb4
:103de4005d204c45443020746f67676c65207261b8
:103df4007465206973206e6f772025730d0a0000a7
:020000040000fa
:103e040053b94ab9002908bf00281cbf4ff0ff313d
:103e14004ff0ff3000f048baadf1080c6de904ce64
:103e2400fdf7f4fbddf804e0dde9022304b070479c
:020000040000fa
:103e340060b969b108b508464822064b996800f094
:103e440013f90120044bc3f8980008bd0020704703
:0c3e5400002070474407002000040042da
:020000040000fa
:103e600030b400eb4004084b03eb84031b7a83421d
:103e700001d030bc7047044b4400251843f825108e
:0c3e800003eb85035a60f4e734040020d3
:020000040000fa
:103e8c0038b505460024074b1c7000f01ff903469b
:103e9c00054a29462046fef70bfc024a1378002bf4
:0c3eac00fcd038bdad0700202804004306
:020000040000fa
:103eb80038b505460024074b1c7000f009f9034685
:103ec800054a29462046fef7f5fb024a1378002bdf
:0c3ed800fcd038bdad07002028040043da
:020000040000fa
:103ee40010b50446074b00221a7000f0f3f803469d
:103ef400054a21460120fef7dffb024a1378002b16
:0c3f0400fcd010bdac07002028300040ad
:020000040000fa
:103f100000b553ec112b83b051ec100b8ded002b41
:103f2000fef7fef89ded002b53ec122bfdf7cefcb7
:0c3f300041ec100b03b05df804fb00bf77
:020000040000fa
:103f3c00802910db812901dd83290cd1136807331b
:103f4c0023f0070303f108011160d3e90023c0e952
:0a3f5c000023012070470020704789
:020000040000fa
:023f6600fee774
:020000040000fa
:103f680008b5074a908980b2064b58604cf2ff3179
:103f780091811b6813b1034a9168984708bd00bf37
:083f8800002400407007002036
:020000040000fa
:103f900038b50569954228bf154604465db12a46e5
:103fa000406900f063f8636922692b44551b0022c5
:083fb000636125611a7038bd40
:020000040000fa
:103fb80008b5064b4ff400425a61054bd3f8b430ac
:103fc8001bb1034ad2f8b800984708bd0028004042
:043fd800340400208d
:020000040000fa
:103fdc0010b50023934206d113f0030018bf012043
:0e3fec0000eb930010bdc45ccc540133f2e72f
:020000040000fa
:023ffa00fee7e0
:020000040000fa
:103ffc0010b429b1044b43f8301003ebc0035a60e2
:0c400c005df8044b704700bf6007002007
:020000040000fa
:10401800034b1870034b1960034b01221a70704749
:0c402800a407002094070020a50700203a
:020000040000fa
:10403400034b1870034b1960034b01221a7070472d
:0c404400a407002094070020a60700201d
:020000040000fa
:10405000034b1870034b1960034b01221a70704711
:0c406000a407002094070020a707002000
:020000040000fa
:10406c005ab110b40a44431e11f8014b03f8014f26
:0c407c009142f9d15df8044b7047704789
:020000040000fa
:1040880013b50446019201aafcf7b8ff636813f060
:0c409800100f18bf4ff0ff3002b010bd39
:020000040000fa
:1040a4000eb403b503aa52f8041b019200f0d6f82b
:0a40b40002b05df804eb03b07047a2
:020000040000fa
:0240be00fee71b
:020000040000fa
:1040c000044a138843f002031380136913f0020fac
:0840d000fbd170470024004001
:020000040000fa
:1040d80003783bb1034600bf13f8012f002afbd138
:0840e800181a704718467047d2
:020000040000fa
:1040f00068076c094c836a9074a07ac00080688855
:0641000000846c820081c6
:020000040000fa
:02410600fee7d2
:020000040000fa
:10410800034b98611a46136913f0080ffbd17047e7
:04411800002400403f
:020000040000fa
:10411c00034b18621a46136913f0200ffbd170473a
:04412c00002400402b
:020000040000fa
:1041300010f4807f02d0024b01221a70704700bf3a
:04414000a9070020ab
:020000040000fa
:10414400012800d07047024b01221a70fae700bf21
:04415400ac07002094
:020000040000fa
:10415800012800d07047024b01221a70fae700bf0d
:04416800ad0700207f
:020000040000fa
:10416c00a9410000dd3f00004d2900004d29000051
:04417c004d290000c9
:020000040000fa
:1041800032b1c9b20244034603f8011b9342fbd18a
:04419000704700bfb5
:020000040000fa
:10419400034600bf11f8012b184603f8012b002a2f
:0441a400f8d1704797
:020000040000fa
:1041a8000a440023914201d10020704701f8013be5
:0241b800f8e726
:020000040000fa
:0241ba0070474c
:020000040000fa
:1041bc0010b1024b18605960704700bf8c0700208b
:020000040000fa
:1041cc0010b1024b18605960704700bf7c0700208b
:020000040000fa
:1041dc00024b03eb0010416082607047080700201f
:020000040000fa
:1041ec00024b40f204521a80704700bf004000415d
:020000040000fa
:1041fc000001020304050607080c101418203040b7
:020000040000fa
:10420c00494e4600696e66004e414e006e616e006e
:020000040000fa
:10421c00494e4600696e66004e414e006e616e005e
:020000040000fa
:0e422c00a0f14103192b98bf40f0200070470d
:020000040000fa
:0e423a00a0f16103192b98bf00f05f007047e0
:020000040000fa
:0c424800014b186099607047700700205f
:020000040000fa
:0c425400014b01221a707047a8070020df
:020000040000fa
:0c42600013460a466ff00041fff7f0b96a
:020000040000fa
:0c426c0010b50446fff790ff204610bd7f
:020000040000fa
:0a42780008b50020fef7b4ff08bdf2
:020000040000fa
:0a42820008b50120fef7afff08bdec
:020000040000fa
:08428c0000000040ffffff1fce
:020000040000fa
:08429400286e696c2900250069
:020000040000fa
:08429c0083f00043fdf714bba1
:020000040000fa
:0742a400286e756c6c290007
:020000040000fa
:0442ac00704700bf98
:020000040000fa
:0200000400807a
:044000003912003c35
:020000040000fa
:0200000400807a
:044004008000a82a66
:020000040000fa
:0200000400807a
:04400800ffffffffb8
:00000001FF
